S01200004D6F76696E67204361722E737265636C
S11300000C942A000C9477000C9447000C9447003D
S11300100C9447000C9447000C9447000C94470040
S11300200C9447000C9449000C9447000C94600015
S11300300C9447000C9447000C9447000C94470020
S11300400C9447000C9447000C9447000C94470010
S11300500C94470011241FBECFE5D8E0DEBFCDBF0E
S113006010E0A0E6B0E0E8E1FBE002C005900D92EC
S1130070AA37B107D9F720E0AAE7B0E001C01D9282
S1130080A538B207E1F70E9465040C948A050C9424
S113009000001F920F920FB60F9211248F939F931B
S11300A080917A008F5F80937A008DEB90EF9DBDF5
S11300B08CBD9F918F910F900FBE0F901F9018953C
S11300C01F920F920FB60F9211248F939F938091DA
S11300D07A008F5F80937A008DEB90EF9DBD8CBD8D
S11300E09F918F910F900FBE0F901F9018951F92A4
S11300F00F920FB60F9211248F9310927A0081E021
S1130100809360008F910F900FBE0F901F901895F1
S1130110CF93C0E00BC0EC2FF0E0EE0FFF1FEF58C1
S1130120FF4F618180810E941104CF5FC43098F336
S1130130C0E011C0EC2FF0E0CF01880F991F880FA9
S1130140991FE80FF91FE959FF4F428161818081AE
S11301500E947303CF5FC23068F3C0E016C08C2FD7
S113016090E09C012F5F3F4FB901660F771F620F2C
S1130170731F6F597F4F9C01220F331F820F931FF0
S11301808F599F4F0E94A803CE5FC23040F380E492
S11301908BBF82E085BF1FBC84E089BF8DEB90EFED
S11301A09DBD8CBD7894CF9108950E9488000E94D3
S11301B0680322C01EBC0E94680365E080E00E94C0
S11301C0150466E080E00E94150460E081E00E946E
S11301D0150467E080E00E94190464E670E081E69B
S11301E090E00E94EE0380E00E949703853011F4B2
S11301F01092600010927A00809160008130D1F2F8
S1130200ECC085E08EBD80917A00823008F4E5C0B0
S113021080917A008930B8F465E080E00E9415048A
S113022066E080E00E94190460E081E00E94150409
S113023067E080E00E94150464E670E081E690E0E7
S11302400E94CB03CAC080917A008930D8F0809193
S11302507A008A30B8F465E080E00E94150466E014
S113026080E00E94150460E081E00E94150467E0CC
S113027080E00E94190464E670E081E690E00E9448
S1130280EE03ABC080917A008A30A8F080917A00A6
S11302908B3088F465E080E00E94150466E080E01D
S11302A00E94150460E081E00E94190467E080E088
S11302B00E94150492C080917A008B30D8F080910E
S11302C07A008C30B8F465E080E00E94150466E0A2
S11302D080E00E94150460E081E00E94150467E05C
S11302E080E00E94190464E670E081E690E00E94D8
S11302F0EE0373C080917A008C30A8F080917A006C
S1130300803188F465E080E00E94190466E080E0B2
S11303100E94150460E081E00E94150467E080E01B
S11303200E9415045AC080917A008031D8F08091DF
S11303307A008131B8F465E080E00E94150466E03B
S113034080E00E94150460E081E00E94150467E0EB
S113035080E00E94190464E670E081E690E00E9467
S1130360EE033BC080917A008131A8F080917A003D
S1130370823188F465E080E00E94150466E080E044
S11303800E94150460E081E00E94190467E080E0A7
S11303900E94150422C080917A008231D8F08091A5
S11303A07A008331B8F465E080E00E94150466E0C9
S11303B080E00E94150460E081E00E94150467E07B
S11303C080E00E94190464E670E081E690E00E94F7
S11303D0EE0303C082E080937A008091600088235A
S11303E009F40FCFE4CE0F931F93CF93DF931F92A3
S11303F0CDB7DEB7082F10E0F801EE0FFF1FEE0FA8
S1130400FF1FE00FF11FE558FF4F6181AE014F5F01
S11304105F4F80810E941F058981813061F4F8015A
S1130420EE0FFF1FEE0FFF1F0E0F1F1FF801E55801
S1130430FF4F82830BC0F801EE0FFF1FEE0FFF1F6B
S11304400E0F1F1FF801E558FF4F12820F90DF9126
S1130450CF911F910F9108950F931F93CF93DF9323
S11304601F92CDB7DEB7082F10E0F801EE0FFF1F83
S1130470EE0FFF1FE00FF11FE558FF4F6181AE0142
S11304804F5F5F4F80810E941F058981813069F42D
S1130490F801EE0FFF1FEE0FFF1F0E0F1F1FF801D5
S11304A0E558FF4F82E082830CC0F801EE0FFF1F76
S11304B0EE0FFF1F0E0F1F1FF801E558FF4F85E0D9
S11304C082830F90DF91CF911F910F9108950F9325
S11304D01F93CF93DF931F92CDB7DEB7082F10E0A1
S11304E0F801EE0FFF1FEE0FFF1FE00FF11FE5589D
S11304F0FF4F6181AE014F5F5F4F80810E941F05F6
S11305008981813069F4F801EE0FFF1FEE0FFF1FA0
S11305100E0F1F1FF801E558FF4F83E082830CC0C4
S1130520F801EE0FFF1FEE0FFF1F0E0F1F1FF80144
S1130530E558FF4F85E082830F90DF91CF911F91A3
S11305400F9108950F931F93CF93DF931F92CDB70D
S1130550DEB7082F10E0F801EE0FFF1FEE0FFF1FAC
S1130560E00FF11FE558FF4F6181AE014F5F5F4F10
S113057080810E941F058981813069F4F801EE0FA2
S1130580FF1FEE0FFF1F0E0F1F1FF801E558FF4F4F
S1130590138284E082830F90DF91CF911F910F919A
S11305A008950F931F93CF93DF931F92CDB7DEB7B8
S11305B0082F10E0F801EE0FFF1FEE0FFF1FE00FF2
S11305C0F11FE558FF4F6181AE014F5F5F4F80819E
S11305D00E941F058981813071F4F801EE0FFF1F1D
S11305E0EE0FFF1F0E0F1F1FF801E558FF4F838109
S11305F08F5F83830DC0F801EE0FFF1FEE0FFF1F07
S11306000E0F1F1FF801E558FF4F85E08283138208
S11306100F90DF91CF911F910F9108950F931F9326
S1130620CF93DF931F92CDB7DEB7082F10E0F80108
S1130630EE0FFF1FEE0FFF1FE00FF11FE558FF4FF6
S11306406181AE014F5F5F4F80810E941F058981E8
S113065081110BC0F801EE0FFF1FEE0FFF1F0E0FED
S11306601F1FF801E558FF4F12820F90DF91CF91C1
S11306701F910F910895282F30E0F901EE0FFF1F0D
S1130680EE0FFF1F2E0F3F1FF901E558FF4F928118
S1130690923091F028F4992349F0913051F0089563
S11306A0943081F060F0953081F008950E94F30158
S11306B008950E942C0208950E94670208950E94E2
S11306C0A20208950E94D10208950E940E03089583
S11306D0CF93C0E004C08C2F0E943B03CF5FC23095
S11306E0D0F3CF9108951F93CF93DF93182FD62F74
S11306F0C42F40E00E946A0441E06D2F812F0E94C4
S1130700A4044C2F50E0FA01EE0FFF1FEE0FFF1F61
S1130710E40FF51FE558FF4F1282138214821083F1
S1130720D183811186E0DF91CF911F9108958230AA
S113073068F490E0FC01EE0FFF1FEE0FFF1F8E0F19
S11307409F1FFC01E558FF4F8281089586E00895BC
S1130750FF920F931F93CF93DF93EC018B010E94C1
S11307601D04F82EC8010E941D04CD2B39F0012B65
S113077039F0F11007C0811107C007C081E005C03E
S113078081E003C081E001C081E0DF91CF911F913E
S11307900F91FF900895FF920F931F93CF93DF93D0
S11307A0EC018B010E943504F82EC8010E94350427
S11307B0CD2B39F0012B39F0F11007C0811107C09E
S11307C007C081E005C081E003C081E001C081E091
S11307D0DF91CF911F910F91FF900895FF920F9396
S11307E01F93CF93DF93EC018B010E944D04F82EED
S11307F0C8010E944D04CD2B39F0012B39F0F110C2
S113080007C0811107C007C081E005C081E003C0B3
S113081081E001C081E0DF91CF911F910F91FF90A2
S1130820089541E00E946A04089540E00E94A404EF
S1130830089541E00E94A4040895CF93DF93EC014E
S113084041E0698188810E946A04811108C041E005
S11308506A8188810E946A04811103C003C081E017
S113086001C081E0DF91CF910895CF93DF93EC0134
S113087041E0698188810E94A404811108C040E09C
S11308806A8188810E94A404811103C003C081E0AD
S113089001C081E0DF91CF910895CF93DF93EC0104
S11308A040E0698188810E94A404811108C040E06D
S11308B06A8188810E94A404811103C003C081E07D
S11308C001C081E0DF91CF9108950E94D50080E0BE
S11308D090E008956830A0F581110BC08AB350E010
S11308E002C0440F551F6A95E2F7482B4ABB80E0CB
S11308F00895813059F487B350E002C0440F551F66
S11309006A95E2F7482B47BB80E00895823059F49A
S113091084B350E002C0440F551F6A95E2F7482B98
S113092044BB80E00895833069F481B350E002C091
S1130930440F551F6A95E2F7482B41BB80E00895A8
S113094081E0089582E00895683008F074C0811150
S11309501BC0413061F42BB381E090E002C0880FEA
S1130960991F6A95E2F7822B8BBB80E008952BB325
S113097081E090E002C0880F991F6A95E2F78095A4
S113098082238BBB80E008958130D9F4413061F437
S113099028B381E090E002C0880F991F6A95E2F7BE
S11309A0822B88BB80E0089528B381E090E002C0E8
S11309B0880F991F6A95E2F78095822388BB80E0AF
S11309C008958230D9F4413061F425B381E090E098
S11309D002C0880F991F6A95E2F7822B85BB80E0DD
S11309E0089525B381E090E002C0880F991F6A95AD
S11309F0E2F78095822385BB80E008958330E9F493
S1130A00413061F422B381E090E002C0880F991F65
S1130A106A95E2F7822B82BB80E0089522B381E0DD
S1130A2090E002C0880F991F6A95E2F780958223AF
S1130A3082BB80E0089581E0089582E008956830E3
S1130A4008F064C0811117C079B381E090E09C0183
S1130A50062E02C0220F331F0A94E2F7872F90E07C
S1130A608223932302C0969587956A95E2F7FA014B
S1130A70808380E008958130B9F476B381E090E01A
S1130A809C01062E02C0220F331F0A94E2F7872F1F
S1130A9090E08223932302C0969587956A95E2F7A6
S1130AA0FA01808380E008958230B9F473B381E061
S1130AB090E09C01062E02C0220F331F0A94E2F735
S1130AC0872F90E08223932302C0969587956A9599
S1130AD0E2F7FA01808380E008958330C9F470B3AB
S1130AE081E090E09C01062E02C0220F331F0A947D
S1130AF0E2F7872F90E08223932302C0969587958F
S1130B006A95E2F7FA01808380E0089581E0089510
S10B0B1082E00895F894FFCF80
S1130B1801000304000001030300000003020100B4
S10D0B2800000500060007010000AC
S9030000FC
