:100000000C9446000C9494060C9463000C946300CA
:100010000C9463000C9463000C9463000C946300D4
:100020000C9463000C948E0A0C9463000C94BE0A2A
:100030000C9463000C9463000C9463000C946300B4
:100040000C9463000C9463000C9463000C946300A4
:100050000C946300D406DF06EA06F807F506F807F5
:1000600000070B0716072107370742074D07FA0756
:100070005807FA0763076E07790784079A07A507E9
:10008000B007BB07C607D107DC07E70711241FBE6F
:10009000CFE5D8E0DEBFCDBF10E0A0E6B0E0E0E500
:1000A000F7E102C005900D92AA38B107D9F720E018
:1000B000AAE8B0E001C01D92A63AB207E1F70E949B
:1000C00028050C94A60B0C94000010928B00109243
:1000D0008A0081E080936000089580918A008F5F9C
:1000E00080938A0060EF70E080E00E94210508950F
:1000F00080918B008F5F80938B006CEB70EF81E0C1
:100100000E94210508951F93CF93DF9300D0CDB7B0
:10011000DEB710E00BC0E12FF0E0EE0FFF1FEF574E
:10012000FF4F618180810E947E041F5F143098F32D
:1001300010E011C0E12FF0E0CF01880F991F880F68
:10014000991FE80FF91FE958FF4F428161818081B3
:100150000E94A1031F5F123068F310E016C0812FC8
:1001600090E09C012F5F3F4FB901660F771F620F30
:10017000731F6F587F4F9C01220F331F820F931FF5
:100180008F589F4F0E94D6031E5F123040F389E6BE
:1001900090E00E94EA0481E690E00E94EA0419825D
:1001A00082E08A8365E670E0CE0101960E946204D7
:1001B00078940F900F90DF91CF911F91089565E093
:1001C00080E00E94820466E080E00E94860460E095
:1001D00081E00E94820467E080E00E948204109225
:1001E0008A0060E087E00E940F0506C064E770E0C7
:1001F00081E790E00E94F90380918A008630B0F395
:1002000006C064E770E081E790E00E943F048091BF
:100210008A00863020F080918A008B3090F380E055
:100220000E941A0510928A00089565E080E00E94FD
:10023000860466E080E00E94820460E081E00E9423
:10024000820467E080E00E94820410928A0060E0ED
:1002500087E00E940F0506C064E770E081E790E048
:100260000E94F90380918A008430B0F306C064E7ED
:1002700070E081E790E00E943F0480918A00843022
:1002800020F080918A008B3090F380E00E941A0564
:1002900010928A00089565E080E00E94820466E082
:1002A00080E00E94820460E081E00E94820467E0B6
:1002B00080E00E94860464E770E081E790E00E949D
:1002C0003F04089565E080E00E94820466E080E0DB
:1002D0000E94820460E081E00E94860467E080E082
:1002E0000E94820410928A0060E087E00E940F055D
:1002F00006C064E770E081E790E00E941C048091F2
:100300008A008630B0F306C064E770E081E790E0D1
:100310000E943F0480918A00863020F080918A00FC
:100320008B3090F380E00E941A0510928A000895A5
:1003300080E00E94760461E087E00E940F058091D2
:100340008B00823008F457C080918B00893018F4FC
:100350000E94DF00089580918B00893038F08091F1
:100360008B008A3018F40E944B01089580918B0015
:100370008A3038F080918B008B3018F40E94620133
:10038000089580918B008B3038F080918B008C30F9
:1003900018F40E944B01089580918B008C3038F046
:1003A00080918B00803118F40E941501089580918E
:1003B0008B00803138F080918B00813118F40E94DD
:1003C0004B01089580918B00813138F080918B0032
:1003D000823118F40E946201089580918B0082316D
:1003E00038F080918B00833118F40E944B010895FE
:1003F00082E080938B00089580E00E947A0481E07F
:100400000E941A050E9496030E944B0180E00E9400
:10041000C503853011F41092600010928B0008958E
:100420000E94830002C00E94FC0180916000813024
:1004300019F4F9CF0E949801809160008823D1F3CC
:10044000F4CF0F931F93CF93DF931F92CDB7DEB7F7
:10045000082F10E0F801EE0FFF1FEE0FFF1FE00F57
:10046000F11FE457FF4F6181AE014F5F5F4F808105
:100470000E94E2058981813061F4F801EE0FFF1FCF
:10048000EE0FFF1F0E0F1F1FF801E457FF4F82836F
:100490000BC0F801EE0FFF1FEE0FFF1F0E0F1F1F07
:1004A000F801E457FF4F12820F90DF91CF911F9117
:1004B0000F9108950F931F93CF93DF931F92CDB7A2
:1004C000DEB7082F10E0F801EE0FFF1FEE0FFF1F41
:1004D000E00FF11FE457FF4F6181AE014F5F5F4FA7
:1004E00080810E94E2058981813069F4F801EE0F74
:1004F000FF1FEE0FFF1F0E0F1F1FF801E457FF4FE6
:1005000082E082830CC0F801EE0FFF1FEE0FFF1F89
:100510000E0F1F1FF801E457FF4F85E082830F90F5
:10052000DF91CF911F910F9108950F931F93CF9358
:10053000DF931F92CDB7DEB7082F10E0F801EE0F62
:10054000FF1FEE0FFF1FE00FF11FE457FF4F618108
:10055000AE014F5F5F4F80810E94E205898181304B
:1005600069F4F801EE0FFF1FEE0FFF1F0E0F1F1FA4
:10057000F801E457FF4F83E082830CC0F801EE0FCF
:10058000FF1FEE0FFF1F0E0F1F1FF801E457FF4F55
:1005900085E082830F90DF91CF911F910F91089595
:1005A0000F931F93CF93DF931F92CDB7DEB7082F22
:1005B00010E0F801EE0FFF1FEE0FFF1FE00FF11F1D
:1005C000E457FF4F6181AE014F5F5F4F80810E9412
:1005D000E2058981813069F4F801EE0FFF1FEE0F0B
:1005E000FF1F0E0F1F1FF801E457FF4F138284E017
:1005F00082830F90DF91CF911F910F9108950F93F8
:100600001F93CF93DF931F92CDB7DEB7082F10E073
:10061000F801EE0FFF1FEE0FFF1FE00FF11FE45771
:10062000FF4F6181AE014F5F5F4F80810E94E20505
:100630008981813071F4F801EE0FFF1FEE0FFF1F6B
:100640000E0F1F1FF801E457FF4F83818F5F8383D5
:100650000DC0F801EE0FFF1FEE0FFF1F0E0F1F1F43
:10066000F801E457FF4F85E0828313820F90DF91FA
:10067000CF911F910F9108950F931F93CF93DF9305
:100680001F92CDB7DEB7082F10E0F801EE0FFF1F65
:10069000EE0FFF1FE00FF11FE457FF4F6181AE0126
:1006A0004F5F5F4F80810E94E205898181110BC0FD
:1006B000F801EE0FFF1FEE0FFF1F0E0F1F1FF801B7
:1006C000E457FF4F12820F90DF91CF911F910F914E
:1006D0000895282F30E0F901EE0FFF1FEE0FFF1FE6
:1006E0002E0F3F1FF901E457FF4F9281923091F096
:1006F00028F4992349F0913051F00895943081F015
:1007000060F0953081F008950E94210208950E94C2
:100710005A0208950E94950208950E94D0020895F9
:100720000E94FF0208950E943C030895CF93C0E009
:1007300004C08C2F0E946903CF5FC230D0F3CF91E9
:1007400008951F93CF93DF93182FD62FC42F40E027
:100750000E942D0541E06D2F812F0E9467054C2FCF
:1007600050E0FA01EE0FFF1FEE0FFF1FE40FF51F21
:10077000E457FF4F1282138214821083D1838111B8
:1007800086E0DF91CF911F910895823068F490E068
:10079000FC01EE0FFF1FEE0FFF1F8E0F9F1FFC01CE
:1007A000E457FF4F8281089586E00895FF920F93EA
:1007B0001F93CF93DF93EC018B010E948A04F82EE4
:1007C000C8010E948A04CD2B39F0012B39F0F110B9
:1007D00007C0811107C007C081E005C081E003C0E8
:1007E00081E001C081E0DF91CF911F910F91FF90D7
:1007F0000895FF920F931F93CF93DF93EC018B012A
:100800000E94A204F82EC8010E94A204CD2B39F048
:10081000012B39F0F11007C0811107C007C081E03A
:1008200005C081E003C081E001C081E0DF91CF918C
:100830001F910F91FF900895FF920F931F93CF93F5
:10084000DF93EC018B010E94A204F82EC8010E94E4
:10085000BA04CD2B39F0012B39F0F11007C081110A
:1008600007C007C081E005C081E003C081E001C08E
:1008700081E0DF91CF911F910F91FF900895FF923A
:100880000F931F93CF93DF93EC018B010E94D2044F
:10089000F82EC8010E94D204CD2B39F0012B39F07B
:1008A000F11007C0811107C007C081E005C081E0D9
:1008B00003C081E001C081E0DF91CF911F910F91D2
:1008C000FF9008950F931F93CF93DF93EC018B015B
:1008D000698188810E944D06B80188810E94820644
:1008E00080E0DF91CF911F910F9108950E946606DD
:1008F00080E008950E94740680E0089541E00E941F
:100900002D05089540E00E946705089541E00E948A
:1009100067050895CF93DF93EC0141E069818881F9
:100920000E942D05811108C041E06A8188810E94E2
:100930002D05811103C003C081E001C081E0DF917A
:10094000CF910895CF93DF93EC0141E069818881D5
:100950000E946705811108C040E06A8188810E9479
:100960006705811103C003C081E001C081E0DF9110
:10097000CF910895CF93DF93EC0140E069818881A6
:100980000E946705811108C041E06A8188810E9448
:100990006705811103C003C081E001C081E0DF91E0
:1009A000CF910895CF93DF93EC0140E06981888176
:1009B0000E946705811108C040E06A8188810E9419
:1009C0006705811103C003C081E001C081E0DF91B0
:1009D000CF9108951F93CF93DF93FC0120812330A3
:1009E000C8F4EC01E6E9F0E02083898182838A8102
:1009F0009B81978386838C819D8191878087CF019E
:100A00000E940B0B182F68818E819F810E94EE0A35
:100A1000812B01C080E0DF91CF911F9108958A3032
:100A200028F4633028F40E944F0B089580E0089565
:100A300080E00895833018F40E94730B089580E0DD
:100A40000895833018F40E945D0B089580E00895A6
:100A50000E94100280E090E008956830A0F58111B6
:100A60000BC08AB350E002C0440F551F6A95E2F7ED
:100A7000482B4ABB80E00895813059F487B350E099
:100A800002C0440F551F6A95E2F7482B47BB80E030
:100A90000895823059F484B350E002C0440F551FCA
:100AA0006A95E2F7482B44BB80E00895833069F4EF
:100AB00081B350E002C0440F551F6A95E2F7482BFE
:100AC00041BB80E0089581E0089582E00895683098
:100AD00008F074C081111BC0413061F42BB381E078
:100AE00090E002C0880F991F6A95E2F7822B8BBBBA
:100AF00080E008952BB381E090E002C0880F991F39
:100B00006A95E2F7809582238BBB80E0089581305F
:100B1000D9F4413061F428B381E090E002C0880F3D
:100B2000991F6A95E2F7822B88BB80E0089528B36D
:100B300081E090E002C0880F991F6A95E2F78095E6
:100B4000822388BB80E008958230D9F4413061F47B
:100B500025B381E090E002C0880F991F6A95E2F703
:100B6000822B85BB80E0089525B381E090E002C030
:100B7000880F991F6A95E2F78095822385BB80E0F4
:100B800008958330E9F4413061F422B381E090E0CC
:100B900002C0880F991F6A95E2F7822B82BB80E022
:100BA000089522B381E090E002C0880F991F6A95F2
:100BB000E2F78095822382BB80E0089581E008956A
:100BC00082E00895683008F064C0811117C079B3DD
:100BD00081E090E09C01062E02C0220F331F0A9490
:100BE000E2F7872F90E08223932302C096958795A2
:100BF0006A95E2F7FA01808380E008958130B9F4C4
:100C000076B381E090E09C01062E02C0220F331FD4
:100C10000A94E2F7872F90E08223932302C09695EF
:100C200087956A95E2F7FA01808380E00895823023
:100C3000B9F473B381E090E09C01062E02C0220F4C
:100C4000331F0A94E2F7872F90E08223932302C098
:100C5000969587956A95E2F7FA01808380E008957A
:100C60008330C9F470B381E090E09C01062E02C08D
:100C7000220F331F0A94E2F7872F90E082239323F9
:100C800002C0969587956A95E2F7FA01808380E025
:100C9000089581E0089582E00895882319F0813055
:100CA00041F012C085B7682B65BF8FB787608FBFD3
:100CB0000BC085B770E0660F771F660F771F682B34
:100CC00065BF8FB780688FBF80E00895882319F0D3
:100CD000813029F007C08BB780648BBF03C08BB70E
:100CE00080688BBF80E00895882319F0813029F057
:100CF00007C08BB78F7B8BBF03C08BB78F778BBF42
:100D000080E00895882319F0813049F00BC08BB73B
:100D10008F7B8BBF7093A1006093A00003C08BB743
:100D20008F778BBF80E008951F920F920FB60F92BE
:100D300011242F933F934F935F936F937F938F93E0
:100D40009F93AF93BF93EF93FF93E091A000F09137
:100D5000A1000995FF91EF91BF91AF919F918F9164
:100D60007F916F915F914F913F912F910F900FBEA7
:100D70000F901F901895833008F034C16A3008F046
:100D800033C1813009F468C020F0823009F4C7C053
:100D90002DC1862F90E08A30910508F029C1FC0111
:100DA000E65DFF4F0C94A00B83B78E7F83BF83B7A4
:100DB0008D7F83BF83B78B7F83BF81E0089583B727
:100DC000816083BF83B78D7F83BF83B78B7F83BFF2
:100DD00081E0089583B78E7F83BF83B7826083BF2E
:100DE00083B78B7F83BF81E0089583B7816083BF22
:100DF00083B7826083BF83B78B7F83BF81E0089511
:100E000083B78E7F83BF83B78D7F83BF83B78460B3
:100E100083BF81E0089583B7816083BF83B78D7FEF
:100E200083BF83B7846083BF81E0089583B78E7FDB
:100E300083BF83B7826083BF83B7846083BF81E051
:100E4000089583B7816083BF83B7826083BF83B710
:100E5000846083BF81E00895862F90E08A309105F9
:100E600008F0C8C0FC01EC5CFF4F0C94A00B8EB5E1
:100E70008E7F8EBD8EB58D7F8EBD8EB58B7F8EBDE8
:100E800081E008958EB581608EBD8EB58D7F8EBD5B
:100E90008EB58B7F8EBD81E008958EB58E7F8EBD21
:100EA0008EB582608EBD8EB58B7F8EBD81E008953C
:100EB0008EB581608EBD8EB582608EBD8EB58B7F06
:100EC0008EBD81E008958EB58E7F8EBD8EB58D7FEF
:100ED0008EBD8EB584608EBD81E008958EB5816033
:100EE0008EBD8EB58D7F8EBD8EB584608EBD81E04A
:100EF00008958EB58E7F8EBD8EB582608EBD8EB507
:100F000084608EBD81E008958EB581608EBD8EB502
:100F100082608EBD8EB584608EBD81E00895862F7F
:100F200090E08830910508F067C0FC01E25CFF4F5B
:100F30000C94A00B85B58B7F85BD85B58D7F85BD58
:100F400085B58E7F85BD81E0089585B5846085BDBA
:100F500085B58D7F85BD85B58E7F85BD81E0089582
:100F600085B58B7F85BD85B5826085BD85B58E7F56
:100F700085BD81E0089585B5846085BD85B58260B5
:100F800085BD85B58E7F85BD81E0089585B58B7F54
:100F900085BD85B58D7F85BD85B5816085BD81E0C9
:100FA000089585B5846085BD85B58D7F85BD85B582
:100FB000816085BD81E0089585B58B7F85BD85B550
:100FC000826085BD85B5816085BD81E0089585B568
:100FD000846085BD85B5826085BD85B5816085BD30
:100FE00081E0089580E0089580E0089581E008950B
:100FF00080E0089580E0089580E00895009709F466
:101000007DC2FC012081233008F07AC23281343065
:1010100008F078C24381443008F076C2213009F4E8
:10102000A6C020F0223009F4C8C170C23130D9F016
:1010300030F0323009F465C03330E1F169C283B772
:10104000806883BF83B78F7B83BF83B7877F83BF6E
:1010500083B78F7E83BF83B78F7D83BF89B781605E
:1010600089BF81E0089523B7206423BF23B7277F7A
:1010700023BFFC012581223059F0233081F021115A
:1010800014C023B72F7E23BF23B72F7D23BF0DC0EE
:1010900023B72F7E23BF23B7206223BF06C023B709
:1010A000206123BF23B7206223BFFC0180858CBF52
:1010B00081E0089523B7206423BF23B7286023BFAE
:1010C000FC012481223059F0233081F0211114C019
:1010D00023B72F7E23BF23B72F7D23BF0DC023B798
:1010E0002F7E23BF23B7206223BF06C023B7206112
:1010F00023BF23B7206223BFFC0180858CBF81E022
:10110000089523B7206823BF23B72F7B23BF23B7BE
:10111000286023BFFC012381213069F028F02230B0
:1011200089F02330B1F01BC023B72F7E23BF23B734
:101130002F7D23BF14C023B7206123BF23B72F7D8A
:1011400023BF0DC023B72F7E23BF23B7206223BF49
:1011500006C023B7206123BF23B7206223BFFC0151
:1011600080858CBF89B7826089BF81E00895313066
:1011700059F138F0323009F4C7C0333009F474C083
:10118000C9C18FB588608FBD8FB584608FBD8FB5A5
:101190008E7F8FBD8FB58D7F8FBD8EB58F7E8EBDBF
:1011A0008EB5877F8EBD8FB58F7B8FBD8FB58F77C7
:1011B0008FBD8FB58F7E8FBD8FB58F7D8FBD89B76A
:1011C000846089BF81E008952FB521602FBD2FB5C0
:1011D0002D7F2FBD2EB52F7E2EBD2EB5277F2EBD88
:1011E000FC012581213099F028F02230E9F02330EC
:1011F00041F133C02FB52F7B2FBD2FB52F772FBDDA
:101200002FB52F7E2FBD2FB52F7D2FBD26C02FB51B
:1012100020642FBD2FB52F772FBD2FB520612FBD97
:101220002FB52F7D2FBD19C02FB52F7B2FBD2FB50B
:1012300020682FBD2FB52F7E2FBD2FB520622FBD6B
:101240000CC02FB520642FBD2FB520682FBD2FB542
:1012500020612FBD2FB520622FBDFC0120852ABD46
:1012600081858BBD81E008952FB521602FBD2FB5FD
:101270002D7F2FBD2EB520612EBD2EB5277F2EBD13
:10128000FC012481213099F028F02230E9F023304C
:1012900041F133C02FB52F7B2FBD2FB52F772FBD39
:1012A0002FB52F7E2FBD2FB52F7D2FBD26C02FB57B
:1012B00020642FBD2FB52F772FBD2FB520612FBDF7
:1012C0002FB52F7D2FBD19C02FB52F7B2FBD2FB56B
:1012D00020682FBD2FB52F7E2FBD2FB520622FBDCB
:1012E0000CC02FB520642FBD2FB520682FBD2FB5A2
:1012F00020612FBD2FB520622FBDFC0120852ABDA6
:1013000081858BBD81E008952FB528602FBD2FB555
:1013100024602FBD2FB52E7F2FBD2FB52D7F2FBD64
:101320002EB520612EBD2EB5277F2EBDFC01238159
:10133000213099F028F02230E9F0233041F133C018
:101340002FB52F7B2FBD2FB52F772FBD2FB52F7E1C
:101350002FBD2FB52F7D2FBD26C02FB520642FBDEB
:101360002FB52F772FBD2FB520612FBD2FB52F7D26
:101370002FBD19C02FB52F7B2FBD2FB520682FBDD6
:101380002FB52F7E2FBD2FB520622FBD0CC02FB5DE
:1013900020642FBD2FB520682FBD2FB520612FBD34
:1013A0002FB520622FBDFC0120852ABD81858BBD14
:1013B00089B7806189BF81E008953130D9F030F07C
:1013C000323009F465C03330E1F1A6C085B58068DC
:1013D00085BD85B58F7B85BD85B5877F85BD85B589
:1013E0008F7E85BD85B58F7D85BD89B7806489BFBA
:1013F00081E0089525B5206425BD25B5277F25BD4D
:10140000FC012581223059F0233081F0211114C0D4
:1014100025B52F7E25BD25B52F7D25BD0DC025B554
:101420002F7E25BD25B5206225BD06C025B52061CE
:1014300025BD25B5206225BDFC01808583BD81E0E9
:10144000089525B5206425BD25B5286025BDFC017E
:101450002481223059F0233081F0211114C025B5A8
:101460002F7E25BD25B52F7D25BD0DC025B52F7E31
:1014700025BD25B5206225BD06C025B5206125BD49
:1014800025B5206225BDFC01808583BD81E00895DE
:1014900025B5206825BD25B52F7B25BD25B5286040
:1014A00025BDFC012381213069F028F0223089F02C
:1014B0002330B1F01BC025B52F7E25BD25B52F7D6E
:1014C00025BD14C025B5206125BD25B52F7D25BDC1
:1014D0000DC025B52F7E25BD25B5206225BD06C0D2
:1014E00025B5206125BD25B5206225BDFC0180857F
:1014F00083BD89B7806889BF81E0089580E0089541
:1015000080E0089580E0089580E0089580E00895E7
:1015100080E0089580E0089580E008951F920F9282
:101520000FB60F9211242F933F934F935F936F93B6
:101530007F938F939F93AF93BF93EF93FF9380918C
:10154000A2009091A300892B41F088B78B7F88BFC0
:10155000E091A200F091A3000995FF91EF91BF9156
:10156000AF919F918F917F916F915F914F913F913B
:101570002F910F900FBE0F901F9018951F920F92F2
:101580000FB60F9211242F933F934F935F936F9356
:101590007F938F939F93AF93BF93EF93FF9380912C
:1015A000A4009091A500892B41F088B78E7F88BF59
:1015B000E091A400F091A5000995FF91EF91BF91F2
:1015C000AF919F918F917F916F915F914F913F91DB
:1015D0002F910F900FBE0F901F9018956330A8F4B5
:1015E0000097A9F0613059F020F0623091F080E06E
:1015F00008959093A5008093A40081E008959093AE
:10160000A3008093A20081E0089580E0089580E027
:10161000089581E008950097B1F1FC012081233005
:10162000A0F53281343098F53381343090F534812F
:10163000343088F5213071F018F02230D1F02DC00F
:1016400012BE13BE1CBEFC01268122BF0E94FE07F3
:10165000816008951CBC1DBC1FBC1EBC1BBC1ABCF9
:10166000FC01268137813DBD2CBD0E94FE078160B3
:10167000089514BC15BC13BCFC01268124BD0E9436
:10168000FE078160089580E0089580E0089580E07D
:10169000089580E0089580E0089581E008958A30FB
:1016A00040F4633040F4962F682F892F0E94BB06C8
:1016B000089580E0089580E00895833080F48130BB
:1016C00039F018F0823041F00CC062BF81E008951B
:1016D0007DBD6CBD81E0089564BD81E0089580E02A
:1016E000089581E00895833038F5813079F018F05D
:1016F0008230B9F023C083B78E7F83BF83B78D7FDD
:1017000083BF83B78B7F83BF81E008958EB58E7FC3
:101710008EBD8EB58D7F8EBD8EB58B7F8EBD81E0EB
:10172000089585B58B7F85BD85B58D7F85BD85B5D4
:101730008E7F85BD81E0089580E0089581E0089561
:10174000EE0FFF1F0590F491E02D0994F894FFCF60
:10175000010000F00000006D000100BCF000007806
:101760000000030400000103030000000302010065
:0A177000000005000600070100005C
:00000001FF
