:100000000C9446000C941B070C9463000C94630042
:100010000C9463000C9463000C9463000C946300D4
:100020000C9463000C94150B0C9463000C94450B1A
:100030000C9463000C9463000C9463000C946300B4
:100040000C9463000C9463000C9463000C946300A4
:100050000C9463005B07660771077F087C077F08C5
:10006000870792079D07A807BE07C907D40781081D
:10007000DF078108EA07F50700080B0821082C08AC
:10008000370842084D08580863086E0811241FBE3F
:10009000CFE5D8E0DEBFCDBF10E0A0E6B0E0E2E300
:1000A000F8E102C005900D92AA37B107D9F720E018
:1000B000AAE7B0E001C01D92A639B207E1F70E949D
:1000C000AF050C94170C0C94000080917A008F5FA0
:1000D00080937A0080EF82BF089580917B008F5FCC
:1000E00080937B008DEB90EF9DBD8CBD08951092A9
:1000F0007B0010927A0081E08093600008951F9346
:10010000CF93DF93CDB7DEB762970FB6F894DEBF1B
:100110000FBECDBF10E00BC0E12FF0E0EE0FFF1FD0
:10012000EF58FF4F618180810E940C051F5F1430E2
:1001300098F310E011C0E12FF0E0CF01880F991F74
:10014000880F991FE80FF91FE959FF4F428161811C
:1001500080810E942F041F5F123068F310E016C0E8
:10016000812F90E09C012F5F3F4FB901660F771FF1
:10017000620F731F6F597F4F9C01220F331F820F35
:10018000931F8F599F4F0E9464041E5F123040F3EB
:1001900081E089831A828CEB90EF9C838B838DE6C0
:1001A00090E098878F83CE0101960E94780519868A
:1001B0001A8680EF90E09C878B8785E690E0988B8D
:1001C0008F87CE0109960E947805198A82E08A8B72
:1001D00067E770E0CE0141960E94F0047894629641
:1001E0000FB6F894DEBF0FBECDBFDF91CF911F9148
:1001F00008950E947F000E94240427C080E00E948E
:10020000080581E00E94A8050E94240465E080E0C2
:100210000E94100566E080E00E94100560E081E029
:100220000E94100567E080E00E94140564E670E01B
:1002300081E690E00E94CD0480E00E945304853066
:1002400011F41092600010927B0080916000813068
:10025000A9F27FC180E00E94040561E087E00E946E
:100260009D0580917B00823008F473C180917B00F2
:100270008930B0F565E080E00E94100566E080E01E
:100280000E94140560E081E00E94100567E080E0B4
:100290000E94100510927A0060E087E00E949D05A0
:1002A00006C064E670E081E690E00E9487048091D9
:1002B0007A008630B0F306C064E670E081E690E034
:1002C0000E94CD0480917A00863020F080917A00DF
:1002D0008B3090F380E00E94A80510927A0039C11B
:1002E00080917B008930D8F080917B008A30B8F40F
:1002F00065E080E00E94100566E080E00E94100545
:1003000060E081E00E94100567E080E00E94140533
:1003100064E670E081E690E00E94CD041AC180910D
:100320007B008A30D0F180917B008B30B0F565E0A6
:1003300080E00E94100566E080E00E94100560E009
:1003400081E00E94140567E080E00E941005109291
:100350007A0060E087E00E949D0506C064E670E0D8
:1003600081E690E00E94AA0480917A008630B0F382
:1003700006C064E670E081E690E00E94CD048091C2
:100380007A00863020F080917A008B3090F380E004
:100390000E94A80510927A00DCC080917B008B300F
:1003A000D8F080917B008C30B8F465E080E00E944A
:1003B000100566E080E00E94100560E081E00E9488
:1003C000100567E080E00E94140564E670E081E6B5
:1003D00090E00E94CD04BDC080917B008C30D0F1B4
:1003E00080917B008031B0F565E080E00E941405CB
:1003F00066E080E00E94100560E081E00E94100548
:1004000067E080E00E94100510927A0060E087E0CB
:100410000E949D0506C064E670E081E690E00E94BF
:10042000870480917A008430B0F306C064E670E0FF
:1004300081E690E00E94CD0480917A00843020F023
:1004400080917A008B3090F380E00E94A805109292
:100450007A007FC080917B008031D8F080917B0052
:100460008131B8F465E080E00E94100566E080E02C
:100470000E94100560E081E00E94100567E080E0C6
:100480000E94140564E670E081E690E00E94CD04CD
:1004900060C080917B008131D0F180917B008231FE
:1004A000B0F565E080E00E94100566E080E00E9403
:1004B000100560E081E00E94140567E080E00E9482
:1004C000100510927A0060E087E00E949D0506C04A
:1004D00064E670E081E690E00E94AA0480917A00D0
:1004E0008630B0F306C064E670E081E690E00E94DA
:1004F000CD0480917A00863020F080917A008B3094
:1005000090F380E00E94A80510927A0022C08091AA
:100510007B008231D8F080917B008331B8F465E0B4
:1005200080E00E94100566E080E00E94100560E017
:1005300081E00E94100567E080E00E94140564E6F7
:1005400070E081E690E00E94CD0403C082E08093D9
:100550007B0080916000882309F47CCE4CCE0F9301
:100560001F93CF93DF931F92CDB7DEB7082F10E014
:10057000F801EE0FFF1FEE0FFF1FE00FF11FE45811
:10058000FF4F6181AE014F5F5F4F80810E9469061E
:100590008981813061F4F801EE0FFF1FEE0FFF1F1C
:1005A0000E0F1F1FF801E458FF4F82830BC0F801A4
:1005B000EE0FFF1FEE0FFF1F0E0F1F1FF801E45875
:1005C000FF4F12820F90DF91CF911F910F910895ED
:1005D0000F931F93CF93DF931F92CDB7DEB7082FF2
:1005E00010E0F801EE0FFF1FEE0FFF1FE00FF11FED
:1005F000E458FF4F6181AE014F5F5F4F80810E94E1
:1006000069068981813069F4F801EE0FFF1FEE0F52
:10061000FF1F0E0F1F1FF801E458FF4F82E0828377
:100620000CC0F801EE0FFF1FEE0FFF1F0E0F1F1F74
:10063000F801E458FF4F85E082830F90DF91CF915E
:100640001F910F9108950F931F93CF93DF931F92E4
:10065000CDB7DEB7082F10E0F801EE0FFF1FEE0F49
:10066000FF1FE00FF11FE458FF4F6181AE014F5FA4
:100670005F4F80810E9469068981813069F4F801A9
:10068000EE0FFF1FEE0FFF1F0E0F1F1FF801E458A4
:10069000FF4F83E082830CC0F801EE0FFF1FEE0FC7
:1006A000FF1F0E0F1F1FF801E458FF4F85E08283E4
:1006B0000F90DF91CF911F910F9108950F931F938A
:1006C000CF93DF931F92CDB7DEB7082F10E0F8016C
:1006D000EE0FFF1FEE0FFF1FE00FF11FE458FF4F5B
:1006E0006181AE014F5F5F4F80810E946906898101
:1006F000813069F4F801EE0FFF1FEE0FFF1F0E0FA0
:100700001F1FF801E458FF4F138284E082830F908B
:10071000DF91CF911F910F9108950F931F93CF9366
:10072000DF931F92CDB7DEB7082F10E0F801EE0F70
:10073000FF1FEE0FFF1FE00FF11FE458FF4F618115
:10074000AE014F5F5F4F80810E94690689818130D1
:1007500071F4F801EE0FFF1FEE0FFF1F0E0F1F1FAA
:10076000F801E458FF4F83818F5F83830DC0F80148
:10077000EE0FFF1FEE0FFF1F0E0F1F1FF801E458B3
:10078000FF4F85E0828313820F90DF91CF911F91FD
:100790000F9108950F931F93CF93DF931F92CDB7BF
:1007A000DEB7082F10E0F801EE0FFF1FEE0FFF1F5E
:1007B000E00FF11FE458FF4F6181AE014F5F5F4FC3
:1007C00080810E946906898181110BC0F801EE0FBA
:1007D000FF1FEE0FFF1F0E0F1F1FF801E458FF4F02
:1007E00012820F90DF91CF911F910F910895282FC2
:1007F00030E0F901EE0FFF1FEE0FFF1F2E0F3F1F1E
:10080000F901E458FF4F9281923091F028F4992336
:1008100049F0913051F00895943081F060F09530B6
:1008200081F008950E94AF0208950E94E8020895A1
:100830000E94230308950E945E0308950E948D0381
:1008400008950E94CA030895CF93C0E004C08C2F7E
:100850000E94F703CF5FC230D0F3CF9108951F936A
:10086000CF93DF93182FD62FC42F40E00E94B405FA
:1008700041E06D2F812F0E94EE054C2F50E0FA01D0
:10088000EE0FFF1FEE0FFF1FE40FF51FE458FF4FA1
:100890001282138214821083D183811186E0DF914A
:1008A000CF911F910895823068F490E0FC01EE0F23
:1008B000FF1FEE0FFF1F8E0F9F1FFC01E458FF4F1D
:1008C0008281089586E00895FF920F931F93CF933E
:1008D000DF93EC018B010E941805F82EC8010E94DD
:1008E0001805CD2B39F0012B39F0F11007C081111B
:1008F00007C007C081E005C081E003C081E001C0FE
:1009000081E0DF91CF911F910F91FF900895FF92A9
:100910000F931F93CF93DF93EC018B010E9430055F
:10092000F82EC8010E943005CD2B39F0012B39F08B
:10093000F11007C0811107C007C081E005C081E048
:1009400003C081E001C081E0DF91CF911F910F9141
:10095000FF900895FF920F931F93CF93DF93EC01C5
:100960008B010E943005F82EC8010E944805CD2B4E
:1009700039F0012B39F0F11007C0811107C007C011
:1009800081E005C081E003C081E001C081E0DF912A
:10099000CF911F910F91FF900895FF920F931F9396
:1009A000CF93DF93EC018B010E946005F82EC80104
:1009B0000E946005CD2B39F0012B39F0F11007C0F2
:1009C000811107C007C081E005C081E003C081E05C
:1009D00001C081E0DF91CF911F910F91FF900895A9
:1009E0000F931F93CF93DF93EC018B016981888173
:1009F0000E94D406B80188810E94090780E0DF9137
:100A0000CF911F910F9108950E94ED0680E0089507
:100A10000E94FB0680E0089541E00E94B40508951D
:100A200040E00E94EE05089541E00E94EE05089521
:100A3000CF93DF93EC0141E0698188810E94B40586
:100A4000811108C041E06A8188810E94B40581114A
:100A500003C003C081E001C081E0DF91CF91089520
:100A6000CF93DF93EC0141E0698188810E94EE051C
:100A7000811108C040E06A8188810E94EE058111E1
:100A800003C003C081E001C081E0DF91CF910895F0
:100A9000CF93DF93EC0140E0698188810E94EE05ED
:100AA000811108C041E06A8188810E94EE058111B0
:100AB00003C003C081E001C081E0DF91CF910895C0
:100AC000CF93DF93EC0140E0698188810E94EE05BD
:100AD000811108C040E06A8188810E94EE05811181
:100AE00003C003C081E001C081E0DF91CF91089590
:100AF0001F93CF93DF93FC0120812330C8F4EC01D6
:100B0000E6E8F0E02083898182838A819B81978354
:100B100086838C819D8191878087CF010E94920B73
:100B2000182F68818E819F810E94750B812B01C0D7
:100B300080E0DF91CF911F9108958A3028F46330CF
:100B400028F40E94D60B089580E0089580E008956F
:100B5000833018F40E94E40B089580E008950E9409
:100B6000F90080E090E008956830A0F581110BC095
:100B70008AB350E002C0440F551F6A95E2F7482B34
:100B80004ABB80E00895813059F487B350E002C039
:100B9000440F551F6A95E2F7482B47BB80E0089544
:100BA000823059F484B350E002C0440F551F6A9557
:100BB000E2F7482B44BB80E00895833069F481B3A9
:100BC00050E002C0440F551F6A95E2F7482B41BB25
:100BD00080E0089581E0089582E00895683008F08B
:100BE00074C081111BC0413061F42BB381E090E0EF
:100BF00002C0880F991F6A95E2F7822B8BBB80E0B9
:100C000008952BB381E090E002C0880F991F6A9588
:100C1000E2F7809582238BBB80E008958130D9F480
:100C2000413061F428B381E090E002C0880F991F41
:100C30006A95E2F7822B88BB80E0089528B381E0B3
:100C400090E002C0880F991F6A95E2F78095822391
:100C500088BB80E008958230D9F4413061F425B337
:100C600081E090E002C0880F991F6A95E2F7822B1D
:100C700085BB80E0089525B381E090E002C0880F35
:100C8000991F6A95E2F78095822385BB80E00895DD
:100C90008330E9F4413061F422B381E090E002C096
:100CA000880F991F6A95E2F7822B82BB80E0089536
:100CB00022B381E090E002C0880F991F6A95E2F7A5
:100CC0008095822382BB80E0089581E0089582E0D0
:100CD0000895683008F064C0811117C079B381E0CD
:100CE00090E09C01062E02C0220F331F0A94E2F707
:100CF000872F90E08223932302C0969587956A956B
:100D0000E2F7FA01808380E008958130B9F476B388
:100D100081E090E09C01062E02C0220F331F0A944E
:100D2000E2F7872F90E08223932302C09695879560
:100D30006A95E2F7FA01808380E008958230B9F481
:100D400073B381E090E09C01062E02C0220F331F96
:100D50000A94E2F7872F90E08223932302C09695AE
:100D600087956A95E2F7FA01808380E008958330E1
:100D7000C9F470B381E090E09C01062E02C0220FFE
:100D8000331F0A94E2F7872F90E08223932302C057
:100D9000969587956A95E2F7FA01808380E0089539
:100DA00081E0089582E00895882319F0813041F0B0
:100DB00012C085B7682B65BF8FB787608FBF0BC028
:100DC00085B770E0660F771F660F771F682B65BFCA
:100DD0008FB780688FBF80E00895882319F0813035
:100DE00029F007C08BB780648BBF03C08BB78068C6
:100DF0008BBF80E00895882319F0813029F007C067
:100E00008BB78F7B8BBF03C08BB78F778BBF80E097
:100E10000895882319F0813049F00BC08BB78F7B80
:100E20008BBF709391006093900003C08BB78F7756
:100E30008BBF80E008951F920F920FB60F9211247E
:100E40002F933F934F935F936F937F938F939F93D2
:100E5000AF93BF93EF93FF93E0919000F0919100D7
:100E60000995FF91EF91BF91AF919F918F917F91E4
:100E70006F915F914F913F912F910F900FBE0F9007
:100E80001F901895833008F034C16A3008F033C1E0
:100E9000813009F468C020F0823009F4C7C02DC148
:100EA000862F90E08A30910508F029C1FC01E65DAB
:100EB000FF4F0C94110C83B78E7F83BF83B78D7F58
:100EC00083BF83B78B7F83BF81E0089583B7816041
:100ED00083BF83B78D7F83BF83B78B7F83BF81E061
:100EE000089583B78E7F83BF83B7826083BF83B744
:100EF0008B7F83BF81E0089583B7816083BF83B711
:100F0000826083BF83B78B7F83BF81E0089583B7FF
:100F10008E7F83BF83B78D7F83BF83B7846083BF9A
:100F200081E0089583B7816083BF83B78D7F83BFDE
:100F300083B7846083BF81E0089583B78E7F83BFCA
:100F400083B7826083BF83B7846083BF81E00895E5
:100F500083B7816083BF83B7826083BF83B78460B8
:100F600083BF81E00895862F90E08A30910508F0D4
:100F7000C8C0FC01EC5CFF4F0C94110C8EB58E7F49
:100F80008EBD8EB58D7F8EBD8EB58B7F8EBD81E083
:100F900008958EB581608EBD8EB58D7F8EBD8EB568
:100FA0008B7F8EBD81E008958EB58E7F8EBD8EB510
:100FB00082608EBD8EB58B7F8EBD81E008958EB52B
:100FC00081608EBD8EB582608EBD8EB58B7F8EBDED
:100FD00081E008958EB58E7F8EBD8EB58D7F8EBDDE
:100FE0008EB584608EBD81E008958EB581608EBD22
:100FF0008EB58D7F8EBD8EB584608EBD81E00895E7
:101000008EB58E7F8EBD8EB582608EBD8EB58460AE
:101010008EBD81E008958EB581608EBD8EB58260F3
:101020008EBD8EB584608EBD81E00895862F90E0E0
:101030008830910508F067C0FC01E25CFF4F0C941A
:10104000110C85B58B7F85BD85B58D7F85BD85B53B
:101050008E7F85BD81E0089585B5846085BD85B5A9
:101060008D7F85BD85B58E7F85BD81E0089585B571
:101070008B7F85BD85B5826085BD85B58E7F85BD3D
:1010800081E0089585B5846085BD85B5826085BDA4
:1010900085B58E7F85BD81E0089585B58B7F85BD43
:1010A00085B58D7F85BD85B5816085BD81E008955D
:1010B00085B5846085BD85B58D7F85BD85B581602D
:1010C00085BD81E0089585B58B7F85BD85B582603E
:1010D00085BD85B5816085BD81E0089585B5846055
:1010E00085BD85B5826085BD85B5816085BD81E0A2
:1010F000089580E0089580E0089581E0089580E0FB
:10110000089580E0089580E00895009709F47DC275
:10111000FC012081233008F07AC23281343008F09B
:1011200078C24381443008F076C2213009F4A6C069
:1011300020F0223009F4C8C170C23130D9F030F04B
:10114000323009F465C03330E1F169C283B7806899
:1011500083BF83B78F7B83BF83B7877F83BF83B70B
:101160008F7E83BF83B78F7D83BF89B7816089BF3F
:1011700081E0089523B7206423BF23B7277F23BFCF
:10118000FC012581223059F0233081F0211114C057
:1011900023B72F7E23BF23B72F7D23BF0DC023B7D7
:1011A0002F7E23BF23B7206223BF06C023B7206151
:1011B00023BF23B7206223BFFC0180858CBF81E061
:1011C000089523B7206423BF23B7286023BFFC0101
:1011D0002481223059F0233081F0211114C023B72B
:1011E0002F7E23BF23B72F7D23BF0DC023B72F7EB4
:1011F00023BF23B7206223BF06C023B7206123BFCC
:1012000023B7206223BFFC0180858CBF81E0089555
:1012100023B7206823BF23B72F7B23BF23B72860C2
:1012200023BFFC012381213069F028F0223089F0AE
:101230002330B1F01BC023B72F7E23BF23B72F7DF0
:1012400023BF14C023B7206123BF23B72F7D23BF43
:101250000DC023B72F7E23BF23B7206223BF06C054
:1012600023B7206123BF23B7206223BFFC01808501
:101270008CBF89B7826089BF81E00895313059F110
:1012800038F0323009F4C7C0333009F474C0C9C132
:101290008FB588608FBD8FB584608FBD8FB58E7F11
:1012A0008FBD8FB58D7F8FBD8EB58F7E8EBD8EB578
:1012B000877F8EBD8FB58F7B8FBD8FB58F778FBDAD
:1012C0008FB58F7E8FBD8FB58F7D8FBD89B78460C1
:1012D00089BF81E008952FB521602FBD2FB52D7FE7
:1012E0002FBD2EB52F7E2EBD2EB5277F2EBDFC0126
:1012F0002581213099F028F02230E9F0233041F1A6
:1013000033C02FB52F7B2FBD2FB52F772FBD2FB516
:101310002F7E2FBD2FB52F7D2FBD26C02FB520646A
:101320002FBD2FB52F772FBD2FB520612FBD2FB526
:101330002F7D2FBD19C02FB52F7B2FBD2FB5206856
:101340002FBD2FB52F7E2FBD2FB520622FBD0CC016
:101350002FB520642FBD2FB520682FBD2FB520617C
:101360002FBD2FB520622FBDFC0120852ABD8185B0
:101370008BBD81E008952FB521602FBD2FB52D7F46
:101380002FBD2EB520612EBD2EB5277F2EBDFC01B1
:101390002481213099F028F02230E9F0233041F106
:1013A00033C02FB52F7B2FBD2FB52F772FBD2FB576
:1013B0002F7E2FBD2FB52F7D2FBD26C02FB52064CA
:1013C0002FBD2FB52F772FBD2FB520612FBD2FB586
:1013D0002F7D2FBD19C02FB52F7B2FBD2FB52068B6
:1013E0002FBD2FB52F7E2FBD2FB520622FBD0CC076
:1013F0002FB520642FBD2FB520682FBD2FB52061DC
:101400002FBD2FB520622FBDFC0120852ABD81850F
:101410008BBD81E008952FB528602FBD2FB52460C6
:101420002FBD2FB52E7F2FBD2FB52D7F2FBD2EB5F4
:1014300020612EBD2EB5277F2EBDFC0123812130DA
:1014400099F028F02230E9F0233041F133C02FB574
:101450002F7B2FBD2FB52F772FBD2FB52F7E2FBD03
:101460002FB52F7D2FBD26C02FB520642FBD2FB5E2
:101470002F772FBD2FB520612FBD2FB52F7D2FBD0D
:1014800019C02FB52F7B2FBD2FB520682FBD2FB5CD
:101490002F7E2FBD2FB520622FBD0CC02FB520642D
:1014A0002FBD2FB520682FBD2FB520612FBD2FB5C3
:1014B00020622FBDFC0120852ABD81858BBD89B7A7
:1014C000806189BF81E008953130D9F030F0323049
:1014D00009F465C03330E1F1A6C085B5806885BDEB
:1014E00085B58F7B85BD85B5877F85BD85B58F7EAD
:1014F00085BD85B58F7D85BD89B7806489BF81E055
:10150000089525B5206425BD25B5277F25BDFC019F
:101510002581223059F0233081F0211114C025B5E6
:101520002F7E25BD25B52F7D25BD0DC025B52F7E70
:1015300025BD25B5206225BD06C025B5206125BD88
:1015400025B5206225BDFC01808583BD81E008951D
:1015500025B5206425BD25B5286025BDFC01248165
:10156000223059F0233081F0211114C025B52F7E8F
:1015700025BD25B52F7D25BD0DC025B52F7E25BDEB
:1015800025B5206225BD06C025B5206125BD25B540
:10159000206225BDFC01808583BD81E0089525B5CD
:1015A000206825BD25B52F7B25BD25B5286025BD27
:1015B000FC012381213069F028F0223089F02330AA
:1015C000B1F01BC025B52F7E25BD25B52F7D25BDCE
:1015D00014C025B5206125BD25B52F7D25BD0DC0C5
:1015E00025B52F7E25BD25B5206225BD06C025B5B4
:1015F000206125BD25B5206225BDFC01808583BD08
:1016000089B7806889BF81E0089580E0089580E00F
:10161000089580E0089580E0089580E0089580E0D6
:10162000089580E0089580E008951F920F920FB60C
:101630000F9211242F933F934F935F936F937F9358
:101640008F939F93AF93BF93EF93FF9380919200FB
:1016500090919300892B41F088B78B7F88BFE091F0
:101660009200F09193000995FF91EF91BF91AF9196
:101670009F918F917F916F915F914F913F912F91AA
:101680000F900FBE0F901F9018951F920F920FB6DC
:101690000F9211242F933F934F935F936F937F93F8
:1016A0008F939F93AF93BF93EF93FF938091940099
:1016B00090919500892B41F088B78E7F88BFE0918B
:1016C0009400F09195000995FF91EF91BF91AF9132
:1016D0009F918F917F916F915F914F913F912F914A
:1016E0000F900FBE0F901F9018956330A8F40097CD
:1016F000A9F0613059F020F0623091F080E0089557
:10170000909395008093940081E0089590939300C6
:101710008093920081E0089580E0089580E008952C
:1017200081E008950097B1F1FC0120812330A0F5FC
:101730003281343098F53381343090F5348134304F
:1017400088F5213071F018F02230D1F02DC012BE92
:1017500013BE1CBEFC01268122BF0E948508816049
:1017600008951CBC1DBC1FBC1EBC1BBC1ABCFC01CC
:10177000268137813DBD2CBD0E948508816008957A
:1017800014BC15BC13BCFC01268124BD0E94850835
:101790008160089580E0089580E0089580E00895D4
:1017A00080E0089580E0089581E008958A3040F453
:1017B000633040F4962F682F892F0E9442070895C6
:1017C00080E0089580E00895833038F5813079F025
:1017D00018F08230B9F023C083B78E7F83BF83B700
:1017E0008D7F83BF83B78B7F83BF81E008958EB5E4
:1017F0008E7F8EBD8EB58D7F8EBD8EB58B7F8EBD5F
:1018000081E0089585B58B7F85BD85B58D7F85BDCC
:1018100085B58E7F85BD81E0089580E0089581E0E3
:101820000895EE0FFF1F0590F491E02D0994F894B0
:02183000FFCFE8
:101832000100030400000103030000000302010091
:0A1842000000050006000701000089
:00000001FF
