S01200004D6F76696E67204361722E737265636C
S11300000C942A000C9460000C9447000C94470054
S11300100C9447000C9447000C9447000C94470040
S11300200C9447000C9449000C9447000C9447002E
S11300300C9447000C9447000C9447000C94470020
S11300400C9447000C9447000C9447000C94470010
S11300500C94470011241FBECFE5D8E0DEBFCDBF0E
S113006010E0A0E6B0E0E4E0F9E002C005900D92F3
S1130070A437B107D9F720E0A4E7B0E001C01D928E
S1130080AF37B207E1F70E945B030C9480040C9431
S113009000001F920F920FB60F9211248F939F931B
S11300A0809174008F5F809374008DEB90EF9DBD01
S11300B08CBD9F918F910F900FBE0F901F9018953C
S11300C01F920F920FB60F9211248F931092740007
S11300D081E0809360008F910F900FBE0F901F906E
S11300E01895C0E00BC0EC2FF0E0EE0FFF1FE559B0
S11300F0FF4F618180810E944F03CF5FC43098F32A
S1130100C0E012C08C2F90E0FC01EE0FFF1FEE0F39
S1130110FF1F8E0F9F1FFC01EF59FF4F428161812A
S113012083E00E941A03CF5FC23060F380E48BBF88
S113013082E085BF1FBC84E089BF8DEB90EF9DBD3D
S11301408CBD78940E940F031CC01EBC0E940F0338
S113015065E080E00E94530366E080E00E94530360
S113016060E081E00E94530367E080E00E9457034F
S113017080E00E943E03853011F4109260001092DA
S1130180740080916000813001F3CEC085E08EBDA3
S113019080917400823008F4C7C080917400893063
S11301A088F465E080E00E94530366E080E00E94EA
S11301B0570360E081E00E94530367E080E00E94FF
S11301C05303B2C0809174008930A8F08091740008
S11301D08A3088F465E080E00E94530366E080E0A2
S11301E00E94530360E081E00E94530367E080E0D3
S11301F00E94570399C0809174008A30A8F08091BE
S113020074008B3088F465E080E00E94530366E05C
S113021080E00E94530360E081E00E94570367E09E
S113022080E00E94530380C0809174008B30A8F05A
S1130230809174008C3088F465E080E00E94530360
S113024066E080E00E94530360E081E00E94530373
S113025067E080E00E94570367C0809174008C308F
S1130260A8F080917400803188F465E080E00E94F9
S1130270570366E080E00E94530360E081E00E943F
S1130280530367E080E00E9453034EC080917400E2
S11302908031A8F080917400813188F465E080E0B9
S11302A00E94530366E080E00E94530360E081E013
S11302B00E94530367E080E00E94570335C0809199
S11302C074008131A8F080917400823188F465E073
S11302D080E00E94530366E080E00E94530360E0E4
S11302E081E00E94570367E080E00E9453031CC032
S11302F0809174008231A8F080917400833188F475
S113030065E080E00E94530366E080E00E945303AE
S113031060E081E00E94530367E080E00E9457039D
S113032003C082E08093740080916000882309F404
S11303302DCF08CF0F931F93CF93DF931F92CDB789
S1130340DEB7082F10E0F801EE0FFF1FEE0FFF1FBE
S1130350E00FF11FEB58FF4F6181AE014F5F5F4F1C
S113036080810E9415048981813061F4F801EE0FC7
S1130370FF1FEE0FFF1F0E0F1F1FF801EB58FF4F5B
S113038082830BC0F801EE0FFF1FEE0FFF1F0E0F4D
S11303901F1FF801EB58FF4F12820F90DF91CF918E
S11303A01F910F9108950F931F93CF93DF931F9283
S11303B0CDB7DEB7082F10E0F801EE0FFF1FEE0FE8
S11303C0FF1FE00FF11FEB58FF4F6181AE014F5F3C
S11303D05F4F80810E9415048981813069F4F8019E
S11303E0EE0FFF1FEE0FFF1F0E0F1F1FF801EB583C
S11303F0FF4F82E082830CC0F801EE0FFF1FEE0F67
S1130400FF1F0E0F1F1FF801EB58FF4F85E082837B
S11304100F90DF91CF911F910F9108950F931F9328
S1130420CF93DF931F92CDB7DEB7082F10E0F8010A
S1130430EE0FFF1FEE0FFF1FE00FF11FEB58FF4FF2
S11304406181AE014F5F5F4F80810E9415048981F5
S1130450813069F4F801EE0FFF1FEE0FFF1F0E0F3E
S11304601F1FF801EB58FF4F83E082830CC0F80193
S1130470EE0FFF1FEE0FFF1F0E0F1F1FF801EB58AB
S1130480FF4F85E082830F90DF91CF911F910F91F1
S113049008950F931F93CF93DF931F92CDB7DEB7C9
S11304A0082F10E0F801EE0FFF1FEE0FFF1FE00F03
S11304B0F11FEB58FF4F6181AE014F5F5F4F8081A9
S11304C00E9415048981813069F4F801EE0FFF1F41
S11304D0EE0FFF1F0E0F1F1FF801EB58FF4F138283
S11304E084E082830F90DF91CF911F910F91089543
S11304F00F931F93CF93DF931F92CDB7DEB7082FCF
S113050010E0F801EE0FFF1FEE0FFF1FE00FF11FC9
S1130510EB58FF4F6181AE014F5F5F4F80810E94B6
S113052015048981813071F4F801EE0FFF1FEE0F7D
S1130530FF1F0E0F1F1FF801EB58FF4F83818F5FC2
S113054083830DC0F801EE0FFF1FEE0FFF1F0E0F88
S11305501F1FF801EB58FF4F85E0828313820F9031
S1130560DF91CF911F910F9108950F931F93CF9314
S1130570DF931F92CDB7DEB7082F10E0F801EE0F1E
S1130580FF1FEE0FFF1FE00FF11FEB58FF4F6181BC
S1130590AE014F5F5F4F80810E94150489818111F4
S11305A00BC0F801EE0FFF1FEE0FFF1F0E0F1F1FF2
S11305B0F801EB58FF4F12820F90DF91CF911F91FA
S11305C00F910895282F30E0F901EE0FFF1FEE0F71
S11305D0FF1F2E0F3F1FF901EB58FF4F92819230FE
S11305E091F028F4992349F0913051F00895943012
S11305F081F060F0953081F008950E949A01089589
S11306000E94D30108950E940E0208950E94490297
S113061008950E94780208950E94B5020895CF9328
S1130620C0E004C08C2F0E94E202CF5FC230D0F33E
S1130630CF9108951F93CF93DF93182FD62FC42FF4
S113064040E00E94600341E06D2F812F0E949A03D5
S11306504C2F50E0FA01EE0FFF1FEE0FFF1FE40FC7
S1130660F51FEB58FF4F1282138214821083D1833B
S1130670811186E0DF91CF911F910895823068F453
S113068090E0FC01EE0FFF1FEE0FFF1F8E0F9F1F68
S1130690FC01EB58FF4F8281089586E0089541E004
S11306A00E946003089540E00E949A03089541E087
S11306B00E949A0308950E94710080E090E00895DA
S11306C06830A0F581110BC08AB350E002C0440F1A
S11306D0551F6A95E2F7482B4ABB80E008958130A4
S11306E059F487B350E002C0440F551F6A95E2F7EE
S11306F0482B47BB80E00895823059F484B350E01E
S113070002C0440F551F6A95E2F7482B44BB80E0B2
S11307100895833069F481B350E002C0440F551F3B
S11307206A95E2F7482B41BB80E0089581E0089583
S113073082E00895683008F074C081111BC0413014
S113074061F42BB381E090E002C0880F991F6A9591
S1130750E2F7822B8BBB80E008952BB381E090E01D
S113076002C0880F991F6A95E2F7809582238BBB9C
S113077080E008958130D9F4413061F428B381E0F8
S113078090E002C0880F991F6A95E2F7822B88BB1C
S113079080E0089528B381E090E002C0880F991F9B
S11307A06A95E2F78095822388BB80E008958230C1
S11307B0D9F4413061F425B381E090E002C0880FA0
S11307C0991F6A95E2F7822B85BB80E0089525B3D3
S11307D081E090E002C0880F991F6A95E2F7809546
S11307E0822385BB80E008958330E9F4413061F4CD
S11307F022B381E090E002C0880F991F6A95E2F766
S1130800822B82BB80E0089522B381E090E002C095
S1130810880F991F6A95E2F78095822382BB80E056
S1130820089581E0089582E00895683008F064C076
S1130830811117C079B381E090E09C01062E02C0BB
S1130840220F331F0A94E2F7872F90E08223932329
S113085002C0969587956A95E2F7FA01808380E055
S113086008958130B9F476B381E090E09C01062EBE
S113087002C0220F331F0A94E2F7872F90E08223ED
S1130880932302C0969587956A95E2F7FA018083CF
S113089080E008958230B9F473B381E090E09C0164
S11308A0062E02C0220F331F0A94E2F7872F90E02E
S11308B08223932302C0969587956A95E2F7FA01FD
S11308C0808380E008958330C9F470B381E090E0C0
S11308D09C01062E02C0220F331F0A94E2F7872FD1
S11308E090E08223932302C0969587956A95E2F758
S11308F0FA01808380E0089581E0089582E00895FC
S1070900F894FFCF95
S113090401030300000003020100000005000600C7
S107091407010000D3
S9030000FC
